{
  "address": "0xb9D70C3d7E4453Cc679D8A91145a28782268f229",
  "abi": [
    {
      "inputs": [
        {
          "internalType": "string",
          "name": "_addressType",
          "type": "string"
        },
        {
          "internalType": "address",
          "name": "_owner",
          "type": "address"
        }
      ],
      "stateMutability": "nonpayable",
      "type": "constructor"
    },
    {
      "anonymous": false,
      "inputs": [
        {
          "indexed": true,
          "internalType": "address",
          "name": "_address",
          "type": "address"
        }
      ],
      "name": "AddressAdded",
      "type": "event"
    },
    {
      "anonymous": false,
      "inputs": [
        {
          "indexed": true,
          "internalType": "address",
          "name": "_address",
          "type": "address"
        }
      ],
      "name": "AddressRemoved",
      "type": "event"
    },
    {
      "anonymous": false,
      "inputs": [
        {
          "indexed": true,
          "internalType": "address",
          "name": "previousOwner",
          "type": "address"
        },
        {
          "indexed": true,
          "internalType": "address",
          "name": "newOwner",
          "type": "address"
        }
      ],
      "name": "OwnershipTransferred",
      "type": "event"
    },
    {
      "inputs": [
        {
          "internalType": "address[]",
          "name": "_addresses",
          "type": "address[]"
        }
      ],
      "name": "addAddresses",
      "outputs": [],
      "stateMutability": "nonpayable",
      "type": "function"
    },
    {
      "inputs": [],
      "name": "addressType",
      "outputs": [
        {
          "internalType": "string",
          "name": "",
          "type": "string"
        }
      ],
      "stateMutability": "view",
      "type": "function"
    },
    {
      "inputs": [],
      "name": "getAddresses",
      "outputs": [
        {
          "internalType": "address[]",
          "name": "",
          "type": "address[]"
        }
      ],
      "stateMutability": "view",
      "type": "function"
    },
    {
      "inputs": [],
      "name": "owner",
      "outputs": [
        {
          "internalType": "address",
          "name": "",
          "type": "address"
        }
      ],
      "stateMutability": "view",
      "type": "function"
    },
    {
      "inputs": [
        {
          "internalType": "address",
          "name": "_previousContract",
          "type": "address"
        },
        {
          "internalType": "address",
          "name": "_address",
          "type": "address"
        }
      ],
      "name": "removeAddress",
      "outputs": [],
      "stateMutability": "nonpayable",
      "type": "function"
    },
    {
      "inputs": [],
      "name": "renounceOwnership",
      "outputs": [],
      "stateMutability": "nonpayable",
      "type": "function"
    },
    {
      "inputs": [
        {
          "internalType": "address",
          "name": "newOwner",
          "type": "address"
        }
      ],
      "name": "transferOwnership",
      "outputs": [],
      "stateMutability": "nonpayable",
      "type": "function"
    }
  ],
  "transactionHash": "0xc4d3ed3eb0ff6a8733c04238d12795743acdc937c551dbd5348680a89cd27ee6",
  "args": [
    "Prize Pools",
    "0x3F0556bCA55Bdbb78A9316936067a47fd4C4C4f4"
  ],
  "solcInputHash": "0d6e349291395349a86f16c86e763cd0",
  "bytecode": "0x60806040523480156200001157600080fd5b5060405162000e3d38038062000e3d833981810160405260408110156200003757600080fd5b81019080805160405193929190846401000000008211156200005857600080fd5b9083019060208201858111156200006e57600080fd5b82516401000000008111828201881017156200008957600080fd5b82525081516020918201929091019080838360005b83811015620000b85781810151838201526020016200009e565b50505050905090810190601f168015620000e65780820380516001836020036101000a031916815260200191505b5060405260200151915060009050620000fe62000177565b600080546001600160a01b0319166001600160a01b03831690811782556040519293509160008051602062000e1d833981519152908290a35081516200014c906003906020850190620002fd565b506200016460016200017b60201b620006451760201c565b6200016f81620001e4565b5050620003a9565b3390565b805415620001bf576040805162461bcd60e51b815260206004820152600c60248201526b105b1c9958591e481a5b9a5d60a21b604482015290519081900360640190fd5b60016000818152918101602052604090912080546001600160a01b0319169091179055565b620001ee62000177565b6001600160a01b031662000201620002ee565b6001600160a01b0316146200025d576040805162461bcd60e51b815260206004820181905260248201527f4f776e61626c653a2063616c6c6572206973206e6f7420746865206f776e6572604482015290519081900360640190fd5b6001600160a01b038116620002a45760405162461bcd60e51b815260040180806020018281038252602681526020018062000df76026913960400191505060405180910390fd5b600080546040516001600160a01b038085169392169160008051602062000e1d83398151915291a3600080546001600160a01b0319166001600160a01b0392909216919091179055565b6000546001600160a01b031690565b828054600181600116156101000203166002900490600052602060002090601f01602090048101928262000335576000855562000380565b82601f106200035057805160ff191683800117855562000380565b8280016001018555821562000380579182015b828111156200038057825182559160200191906001019062000363565b506200038e92915062000392565b5090565b5b808211156200038e576000815560010162000393565b610a3e80620003b96000396000f3fe608060405234801561001057600080fd5b506004361061007d5760003560e01c80638da5cb5b1161005b5780638da5cb5b14610179578063a39fac121461019d578063b6fac15a146101f5578063f2fde38b146102235761007d565b80633628731c14610082578063506cd107146100f4578063715018a614610171575b600080fd5b6100f26004803603602081101561009857600080fd5b8101906020810181356401000000008111156100b357600080fd5b8201836020820111156100c557600080fd5b803590602001918460208302840111640100000000831117156100e757600080fd5b509092509050610249565b005b6100fc610343565b6040805160208082528351818301528351919283929083019185019080838360005b8381101561013657818101518382015260200161011e565b50505050905090810190601f1680156101635780820380516001836020036101000a031916815260200191505b509250505060405180910390f35b6100f26103d1565b61018161047d565b604080516001600160a01b039092168252519081900360200190f35b6101a561048c565b60408051602080825283518183015283519192839290830191858101910280838360005b838110156101e15781810151838201526020016101c9565b505050509050019250505060405180910390f35b6100f26004803603604081101561020b57600080fd5b506001600160a01b038135811691602001351661049d565b6100f26004803603602081101561023957600080fd5b50356001600160a01b0316610543565b6102516106ad565b6001600160a01b031661026261047d565b6001600160a01b0316146102ab576040805162461bcd60e51b815260206004820181905260248201526000805160206109e9833981519152604482015290519081900360640190fd5b60005b8181101561033e576102e58383838181106102c557fe5b905060200201356001600160a01b031660016106b190919063ffffffff16565b8282828181106102f157fe5b905060200201356001600160a01b03166001600160a01b03167fa226db3f664042183ee0281230bba26cbf7b5057e50aee7f25a175ff45ce4d7f60405160405180910390a26001016102ae565b505050565b6003805460408051602060026001851615610100026000190190941693909304601f810184900484028201840190925281815292918301828280156103c95780601f1061039e576101008083540402835291602001916103c9565b820191906000526020600020905b8154815290600101906020018083116103ac57829003601f168201915b505050505081565b6103d96106ad565b6001600160a01b03166103ea61047d565b6001600160a01b031614610433576040805162461bcd60e51b815260206004820181905260248201526000805160206109e9833981519152604482015290519081900360640190fd5b600080546040516001600160a01b03909116907f8be0079c531659141344cd1fd0a4f28419497f9722a3daafe3b4186f6b6457e0908390a3600080546001600160a01b0319169055565b6000546001600160a01b031690565b606061049860016107c5565b905090565b6104a56106ad565b6001600160a01b03166104b661047d565b6001600160a01b0316146104ff576040805162461bcd60e51b815260206004820181905260248201526000805160206109e9833981519152604482015290519081900360640190fd5b61050b600183836108a6565b6040516001600160a01b038216907f24a12366c02e13fe4a9e03d86a8952e85bb74a456c16e4a18b6d8295700b74bb90600090a25050565b61054b6106ad565b6001600160a01b031661055c61047d565b6001600160a01b0316146105a5576040805162461bcd60e51b815260206004820181905260248201526000805160206109e9833981519152604482015290519081900360640190fd5b6001600160a01b0381166105ea5760405162461bcd60e51b81526004018080602001828103825260268152602001806109c36026913960400191505060405180910390fd5b600080546040516001600160a01b03808516939216917f8be0079c531659141344cd1fd0a4f28419497f9722a3daafe3b4186f6b6457e091a3600080546001600160a01b0319166001600160a01b0392909216919091179055565b805415610688576040805162461bcd60e51b815260206004820152600c60248201526b105b1c9958591e481a5b9a5d60a21b604482015290519081900360640190fd5b60016000818152918101602052604090912080546001600160a01b0319169091179055565b3390565b6001600160a01b0381166001148015906106d357506001600160a01b03811615155b610716576040805162461bcd60e51b815260206004820152600f60248201526e496e76616c6964206164647265737360881b604482015290519081900360640190fd5b6001600160a01b0381811660009081526001840160205260409020541615610775576040805162461bcd60e51b815260206004820152600d60248201526c105b1c9958591e481859191959609a1b604482015290519081900360640190fd5b60016000818152838201602052604080822080546001600160a01b039586168085529284208054969091166001600160a01b03199687161790559183905281549093169092179091558154019055565b60606000826000015467ffffffffffffffff811180156107e457600080fd5b5060405190808252806020026020018201604052801561080e578160200160208202803683370190505b50600160008181529085016020526040812054919250906001600160a01b03165b6001600160a01b0381161580159061085157506001600160a01b038116600114155b1561089d578083838151811061086357fe5b6001600160a01b0392831660209182029290920181019190915291811660009081526001808801909352604090205492909101911661082f565b50909392505050565b6001600160a01b0381166001148015906108c857506001600160a01b03811615155b61090b576040805162461bcd60e51b815260206004820152600f60248201526e496e76616c6964206164647265737360881b604482015290519081900360640190fd5b6001600160a01b038281166000908152600185016020526040902054811690821614610974576040805162461bcd60e51b8152602060048201526013602482015272496e76616c696420707265764164647265737360681b604482015290519081900360640190fd5b6001600160a01b039081166000818152600185016020526040808220805495851683529082208054959094166001600160a01b0319958616179093555280549091169055805460001901905556fe4f776e61626c653a206e6577206f776e657220697320746865207a65726f20616464726573734f776e61626c653a2063616c6c6572206973206e6f7420746865206f776e6572a2646970667358221220ca7ed9842a3bf5c6d7b13bcbbcd86395ac0108e7804a0e8f64cc75fa9424001b64736f6c634300070600334f776e61626c653a206e6577206f776e657220697320746865207a65726f20616464726573738be0079c531659141344cd1fd0a4f28419497f9722a3daafe3b4186f6b6457e0",
  "devdoc": {
    "kind": "dev",
    "methods": {
      "addAddresses(address[])": {
        "params": {
          "_addresses": "Array of contract addresses to be added"
        }
      },
      "constructor": {
        "params": {
          "_addressType": "The type of contracts stored in this registry ",
          "_owner": "The address to set as owner of the contract"
        }
      },
      "getAddresses()": {
        "returns": {
          "_0": "Array of contract addresses"
        }
      },
      "owner()": {
        "details": "Returns the address of the current owner."
      },
      "removeAddress(address,address)": {
        "params": {
          "_address": "The address to remove from the linked list. ",
          "_previousContract": "The address positionally located before the address that will be deleted. This may be the SENTINEL address if the list contains one contract address"
        }
      },
      "renounceOwnership()": {
        "details": "Leaves the contract without owner. It will not be possible to call `onlyOwner` functions anymore. Can only be called by the current owner. NOTE: Renouncing ownership will leave the contract without an owner, thereby removing any functionality that is only available to the owner."
      },
      "transferOwnership(address)": {
        "details": "Transfers ownership of the contract to a new account (`newOwner`). Can only be called by the current owner."
      }
    },
    "version": 1
  },
  "userdoc": {
    "kind": "user",
    "methods": {
      "addAddresses(address[])": {
        "notice": "Adds addresses to the linked list. Will revert if the address is already in the list.  Can only be called by the Registry owner."
      },
      "addressType()": {
        "notice": "Storage field for what type of contract this Registry is storing "
      },
      "constructor": {
        "notice": "Contract constructor sets addressType, intializes list and transfers ownership"
      },
      "getAddresses()": {
        "notice": "Returns an array of all contract addresses in the linked list"
      },
      "removeAddress(address,address)": {
        "notice": "Removes an address from the linked list. Can only be called by the Registry owner."
      }
    },
    "notice": "A registry to hold Contract addresses.  Underlying data structure is a singly linked list. ",
    "version": 1
  },
  "storageLayout": {
    "storage": [
      {
        "astId": 7,
        "contract": "@pooltogether/pooltogether-generic-registry/contracts/AddressRegistry.sol:AddressRegistry",
        "label": "_owner",
        "offset": 0,
        "slot": "0",
        "type": "t_address"
      },
      {
        "astId": 152,
        "contract": "@pooltogether/pooltogether-generic-registry/contracts/AddressRegistry.sol:AddressRegistry",
        "label": "addressList",
        "offset": 0,
        "slot": "1",
        "type": "t_struct(Mapping)268_storage"
      },
      {
        "astId": 155,
        "contract": "@pooltogether/pooltogether-generic-registry/contracts/AddressRegistry.sol:AddressRegistry",
        "label": "addressType",
        "offset": 0,
        "slot": "3",
        "type": "t_string_storage"
      }
    ],
    "types": {
      "t_address": {
        "encoding": "inplace",
        "label": "address",
        "numberOfBytes": "20"
      },
      "t_mapping(t_address,t_address)": {
        "encoding": "mapping",
        "key": "t_address",
        "label": "mapping(address => address)",
        "numberOfBytes": "32",
        "value": "t_address"
      },
      "t_string_storage": {
        "encoding": "bytes",
        "label": "string",
        "numberOfBytes": "32"
      },
      "t_struct(Mapping)268_storage": {
        "encoding": "inplace",
        "label": "struct MappedSinglyLinkedList.Mapping",
        "members": [
          {
            "astId": 263,
            "contract": "@pooltogether/pooltogether-generic-registry/contracts/AddressRegistry.sol:AddressRegistry",
            "label": "count",
            "offset": 0,
            "slot": "0",
            "type": "t_uint256"
          },
          {
            "astId": 267,
            "contract": "@pooltogether/pooltogether-generic-registry/contracts/AddressRegistry.sol:AddressRegistry",
            "label": "addressMap",
            "offset": 0,
            "slot": "1",
            "type": "t_mapping(t_address,t_address)"
          }
        ],
        "numberOfBytes": "64"
      },
      "t_uint256": {
        "encoding": "inplace",
        "label": "uint256",
        "numberOfBytes": "32"
      }
    }
  }
}